{
  "contractName": "FirstContract",
  "abi": [
    {
      "inputs": [],
      "name": "deposit",
      "outputs": [
        {
          "internalType": "string",
          "name": "",
          "type": "string"
        }
      ],
      "stateMutability": "pure",
      "type": "function",
      "constant": true
    },
    {
      "inputs": [
        {
          "internalType": "int256",
          "name": "a",
          "type": "int256"
        },
        {
          "internalType": "int256",
          "name": "b",
          "type": "int256"
        }
      ],
      "name": "add",
      "outputs": [
        {
          "internalType": "int256",
          "name": "",
          "type": "int256"
        }
      ],
      "stateMutability": "pure",
      "type": "function",
      "constant": true
    }
  ],
  "bytecode": "0x608060405234801561001057600080fd5b50610331806100206000396000f3fe608060405234801561001057600080fd5b50600436106100365760003560e01c8063a5f3c23b1461003b578063d0e30db01461006b575b600080fd5b610055600480360381019061005091906100f6565b610089565b604051610062919061017a565b60405180910390f35b6100736100a4565b6040516100809190610195565b60405180910390f35b600080828461009891906101d3565b90508091505092915050565b60606040518060400160405280601881526020017f596f752068617665206465706f7369746564204d6f6e65790000000000000000815250905090565b6000813590506100f0816102e4565b92915050565b6000806040838503121561010957600080fd5b6000610117858286016100e1565b9250506020610128858286016100e1565b9150509250929050565b61013b81610267565b82525050565b600061014c826101b7565b61015681856101c2565b9350610166818560208601610271565b61016f816102d3565b840191505092915050565b600060208201905061018f6000830184610132565b92915050565b600060208201905081810360008301526101af8184610141565b905092915050565b600081519050919050565b600082825260208201905092915050565b60006101de82610267565b91506101e983610267565b9250817f7fffffffffffffffffffffffffffffffffffffffffffffffffffffffffffffff03831360008312151615610224576102236102a4565b5b817f800000000000000000000000000000000000000000000000000000000000000003831260008312161561025c5761025b6102a4565b5b828201905092915050565b6000819050919050565b60005b8381101561028f578082015181840152602081019050610274565b8381111561029e576000848401525b50505050565b7f4e487b7100000000000000000000000000000000000000000000000000000000600052601160045260246000fd5b6000601f19601f8301169050919050565b6102ed81610267565b81146102f857600080fd5b5056fea264697066735822122003ab7be635029da9d37335bfa51b1238347978a345d01ca2df36e91d38a8884d64736f6c63430008040033",
  "immutableReferences": {},
  "source": "// SPDX-License-Identifier: GPL-3.0\r\npragma solidity ^0.8.4;\r\n\r\n// Abstrat Contracts can only be used for inheritance. \r\nabstract contract Bank{\r\n    function openAccount() virtual pure public returns (string memory);\r\n    \r\n    function showBalance() virtual pure public returns (string memory);\r\n\r\n}\r\n\r\ncontract FirstContract{\r\n\r\n    function deposit() pure public returns (string memory){\r\n        return \"You have deposited Money\";\r\n    }\r\n\r\n        function add(int a, int b) pure public returns (int){\r\n        int v=a+b;\r\n        return v;\r\n    }\r\n\r\n}\r\n",
  "sourcePath": "C:\\Users\\AsadS\\Documents\\QA\\Blockchain\\project1\\contracts\\FirstContract.sol",
  "compiler": {
    "name": "solc",
    "version": "0.8.4+commit.c7e474f2.Emscripten.clang"
  },
  "schemaVersion": "3.4.4",
  "updatedAt": "2022-08-15T13:34:34.720Z",
  "networkType": "ethereum",
  "devdoc": {
    "kind": "dev",
    "methods": {},
    "version": 1
  },
  "userdoc": {
    "kind": "user",
    "methods": {},
    "version": 1
  }
}